:060000000A128A112429F6
:10000800F000030EF1000B193F208C181020710E20
:100018008300F00E700E0900031383128C10B70AC8
:100028000B30BB001930BA0037083C3C03193020AC
:1000380038083C3C031933203908183C031936208A
:100048003B080021BC003A083C02031939203B0850
:100058000D3C03193C200800B80AB7010800B90A8A
:10006800B8010800BA0AB9010800BB0ABA010800B9
:100078000130BB00080003138312E63081000B1126
:10008800260888002608013C03195D202608023C42
:10009800031960202608043C031963202608083C3D
:1000A800031966200310A60D2608103C03196920C1
:1000B8000800220885000800230885000800240895
:1000C80085000800250885000800A601A60A080082
:100200008A010A140F39820720341D3420341F3428
:1002100020341F34203420341F3420341F34203441
:100220008A010A140F3982073F3406345B344F3495
:1002300066346D347D3407347F346F3477347C34E6
:1002400039345E347934713420146920D121E121AC
:10025000C221B721A5210313831203138312352171
:100260005C21061883218E212F293808BD00BE018C
:10027000BE0A0A30BD02031838293E03A8000A301E
:100280003D07A7003908BD00BE01BE0A0A30BD0205
:10029000031845293E03AA000A303D07A900270894
:1002A0001021AB0028081021AC0029081021AD0056
:1002B0002A081021AE0008003A08BD00BE01BE0A9F
:1002C0000A30BD0203185F293E03B0000A303D0723
:1002D000AF003B08BD00BE01BE0A0A30BD020318D4
:1002E0006C293E03B2000A303D07B1002F081021EF
:1002F000B30030081021B40031081021B5003208D5
:100300001021B6000800061883298721080020085C
:10031000A10021182010211C20140800201893216E
:10032000201C9C2108002B08A2002C08A3002D08EB
:10033000A4002E08A50008003308A2003408A3007A
:100340003508A4003608A50008000313831212170D
:100350009216121692151215921412140313831684
:100360007A3092009101031383128C10080003135A
:1003700083168C14031383128B160B118C100B171E
:100380008B17080003138316811281110115811048
:1003900001100313831203138312E63081000B1143
:1003A000080003178316880189010313831685014A
:1003B00088018701061403138312850188018701D0
:1003C0000800031383160F138F120F160F14080063
:04400E00D420FF3F7C
:00000001FF
