:060000000A128A112429F6
:10000800F000030EF1000B194B208C181F200C1860
:100018001220710E8300F00E700E0900F8308F0068
:100028005E308E000C1020181A200800C30A4308FE
:10003800013989000800031383128C10241CBB0AA1
:100048003B083C3C03193C203C083C3C03193F203E
:100058003D08183C031942203F080021C0003E0813
:10006800C002031945203F080D3C03194820080029
:10007800BC0ABB010800BD0ABC010800BE0ABD01DC
:100088000800BF0ABE0108000130BF0008000313C2
:100098008312E13081000B112A0888002A08013CEC
:1000A800031969202A08023C03196C202A08043C19
:1000B80003196F202A08083C031972200310AA0D9F
:1000C8002A08103C03197520080026088500080036
:1000D80027088500080028088500080029088500E9
:0800E8000800AA01AA0A0800A1
:100200008A010A140F3982071F341D3420341F3429
:1002100020341F34203420341F3420341F34203441
:100220008A010A140F3982073F3406345B344F3495
:1002300066346D347D3407347F346F3477347C34E6
:1002400039345E347934713420142410221075202E
:100250006A2280225B224E222E2240220313831226
:10026000031383123C21632106180B2216228618E1
:100270008A212418952132293C08C100C201C20AF2
:100280000A30C10203183F294203AC000A3041077B
:10029000AB003D08C100C201C20A0A30C102031806
:1002A0004C294203AE000A304107AD002B08102153
:1002B000AF002C081021B0002D081021B1002E082D
:1002C0001021B20008003E08C100C201C20A0A3073
:1002D000C102031866294203B4000A304107B30083
:1002E0003F08C100C201C20A0A30C10203187329C3
:1002F0004203B6000A304107B50033081021B700A9
:1003000034081021B80035081021B9003608102132
:10031000BA00080086188A298E2108002408A50042
:1003200025182410251C2414080006199C21AD2131
:10033000B721C121CB21080006199C292208A3005E
:100340002318A921231CA5210800221407128716AF
:10035000080022108712071608002208C80020088B
:10036000C90048094905C4004418F12108002208C1
:10037000C8002008C90049094805C5004518E421FE
:1003800008002208C8002008C900C9084805C6009E
:100390004618D72108002208C8002008C9004809CB
:1003A000CA0049094A05C7004718FE2108008619F6
:1003B000DC21061AE02108008619DC29BC0A0800A5
:1003C000061AE029BC0308008619E921061AED2166
:1003D00008008619E929BE0A0800061AED29BE039D
:1003E00008008619F621061AFA2108008619F6294E
:1003F000BD0A0800061AFA29BD030800861903225F
:10040000061A072208008619032ABF0A0800061ADE
:10041000072ABF03080006180B2A0F22080020082D
:10042000A10021182010211C2014080020181B22D4
:10043000201C242208002F08A6003008A70031083D
:10044000A8003208A90008003708A6003808A7004D
:100450003908A8003A08A9000914080003138312F8
:1004600012179216121692151215921412140313E3
:100470008316013092009101031383128C1008003F
:10048000031383121013901610169011901010146D
:10049000F8308F005E308E000C10080003138316B6
:1004A0008C140C14031383128B160B110C108C106C
:1004B0000B178B1708000313831681128111011586
:1004C000811001100313831203138312E1308100A2
:1004D0000B11080003178316880189010313831683
:1004E0008501880187018901061486140615861581
:1004F000061603138312850188018701890108000C
:0E050000031383160F138F120F160F1408002B
:04400E00D420FF3F7C
:00000001FF
