:060000000A128A112429F6
:10000800F000030EF1000B1981204720710E8300C8
:10001800F00E700E0900AF0ABD0A2F080A3C03193A
:100028002220AF001021B800B0001021B900B100A3
:100038001021BA00B2001021BB000800B00AAF01BD
:10004800BE000021BF003D08BF0203192C20080094
:10005800BE0AB10AAF01B00131080A3C03193520C4
:100068000800B20AB101B208013C03193C2008009B
:100078003108033C031941200800AF01B001B20167
:100088000130B100080003138312F03081000B1116
:10009800BC0A3C083D3C031D6828BC01B30A330870
:1000A8003C3C031970202B080A3C031973202C08C8
:1000B800063C031976202D080A3C031979202E08DE
:1000C800023C03197C2008000800B301AB01AC0115
:1000D800AD01AE010F200800AB0AB3010800AC0A5D
:1000E800AB010800AD0AAC010800AE0AAD0108007A
:1000F8002D08043C03196920080003138312F0300B
:1001080081000B11260888002608013C03199F204E
:100118002608023C0319A2202608043C0319A5203E
:100128002608083C0319A8200310A60D2608103C31
:100138000319AB2008002208850008002308850061
:100148000800240885000800250885000800A60185
:04015800A60A0800EB
:100200008A010A140F39820720341D3420341F3428
:1002100020341F34203420341F3420341F34203441
:100220008A010A140F3982073F3406345B344F3495
:1002300066346D347D3407347F346F3477347C34E6
:1002400039345E34793471342014AB2087219721FE
:1002500078216D215D210313831203138312061885
:100260003E212B081021A2002C081021A3002D08EC
:100270001021A4002E081021A5002F2906183E29C0
:10028000422108002008A10021184921211C5321E6
:10029000080020103408A2003508A3003608A40086
:1002A0003708A500080020147730A2003930A300D9
:1002B0007930A4005E30A5000800031383121217E2
:1002C0009216121692151215921412140313831615
:1002D0007A30920091018C100800031383168C145D
:1002E000031383128B160B118C100B178B1708003E
:1002F000031383168112811101158110011003135C
:10030000831203138312F03081000B1108000317CE
:1003100083168801890103138316850188018701EB
:100320000614031383128501880187010800031353
:0C03300083160F138F120F160F14080015
:04400E00D420FF3F7C
:00000001FF
