:060000000A128A112529F5
:10000800F000030EF1000B194B208C181F200C1860
:100018001220710E8300F00E700E0900F8308F0068
:100028005E308E000C1020181A200800C30A4308FE
:10003800013989000800031383128C10241CBB0AA1
:100048003B083C3C03193C203C083C3C03193F203E
:100058003D08183C031942203F080021C0003E0813
:100068004002031945203F080D3C031948200800A9
:10007800BC0ABB010800BD0ABC010800BE0ABD01DC
:100088000800BF0ABE0108000130BF0008000313C2
:100098008312E13081000B112A0888002A08013CEC
:1000A800031969202A08023C03196C202A08043C19
:1000B80003196F202A08083C031972200310AA0D9F
:1000C8002A08103C03197520080026088500080036
:1000D80027088500080028088500080029088500E9
:0800E8000800AA01AA0A0800A1
:100200008A010A140F39820700341F341D34203448
:100210001F3420341F34203420341F3420341F3442
:1002200020348A010A140F3982073F3406345B34C4
:100230004F3466346D347D3407347F346F34773413
:100240007C3439345E34793471341730BD00023077
:10025000BF001C30BE0020142410221075209022F4
:10026000A6228122742254226622031383120313CE
:10027000831243216A21061831223C2286189121DB
:1002800024189F2139293C08C100C201C20A0A3042
:10029000C102031846294203AC000A304107AB00F3
:1002A0003D08C100C201C20A0A30C1020318532925
:1002B0004203AE000A304107AD002B081121AF0008
:1002C0002C081121B0002D081121B1002E08112198
:1002D000B20008003E08C100C201C20A0A30C102D1
:1002E00003186D294203B4000A304107B3003F08E8
:1002F000C100C201C20A0A30C10203187A294203AE
:10030000B6000A304107B50033081121B7003408A0
:100310001121B80035081121B90036081121BA00A1
:10032000080086189129952108002408A5002518A1
:100330009C21251C241408002410BB010800061968
:10034000A621B721C121CB21D52108000619A62954
:100350002208A3002318B321231CAF210800221474
:1003600007128716080022108712071608002208B5
:10037000C8002008C90048094905C40044180922DA
:1003800008002208C8002008C90049094805C5001E
:1003900045181D2208002208C8002008C900C90805
:1003A0004805C6004618E12108002208C8002008B8
:1003B000C9004809CA0049094A05C7004718F5217C
:1003C00008008619E621061AEA2108008619E6299E
:1003D000BC0A0800061AEA29BC033C08FF3C0319C2
:1003E000F22108003B30BC0008008619FA21061AE9
:1003F000FE2108008619FA29BE0A0800061AFE29FD
:10040000BE033E08FF3C031906220800C008BE00D8
:10041000080086190E22061A1222080086190E2AD2
:10042000BD0A0800061A122ABD033D08FF3C031945
:100430001A2208001730BD00080086192222061A69
:10044000262208008619222ABF0A0800061A262A30
:10045000BF033F08FF3C03192E2208000C30BF00E9
:1004600008000618312A352208002008A1002118AA
:100470002010211C2014080020184122201C4A2290
:1004800008002F08A6003008A7003108A80032088D
:10049000A90008003708A8003808A9003908A600F4
:1004A0003A08A700091408000313831212179216C2
:1004B000121692151215921412140313831601309A
:1004C00092009101031383128C100800031383120E
:1004D000101390161016901190101014F8308F0011
:1004E0005E308E000C100800031383168C140C145D
:1004F000031383128B160B110C108C100B178B1718
:100500000800031383168112811101158110011057
:100510000313831203138312E13081000B110800CF
:100520000317831688018901031383168501880147
:10053000870189010614861406158615061603130D
:10054000831285018801870189010800031383163E
:0A0550000F138F120F160F1408008E
:04400E00D420FF3F7C
:00000001FF
