:060000000A128A112429F6
:10000800F000030EF1000B194B208C181F200C1860
:100018001220710E8300F00E700E0900F8308F0068
:100028005E308E000C1020181A200800C10A410802
:10003800013987000800031383128C10221CB90AA7
:1000480039083C3C03193C203A083C3C03193F2042
:100058003B08183C031942203D080021BE003C081B
:10006800BE02031945203D080D3C0319482008002D
:10007800BA0AB9010800BB0ABA010800BC0ABB01E8
:100088000800BD0ABC0108000130BD0008000313C8
:100098008312E13081000B11280888002808013CF0
:1000A800031969202808023C03196C202808043C1D
:1000B80003196F202808083C031972200310A80DA3
:1000C8002808103C0319752008002408850008003A
:1000D80025088500080026088500080027088500EF
:0800E8000800A801A80A0800A5
:100200008A010A140F3982071F341D3420341F3429
:1002100020341F34203420341F3420341F34203441
:100220008A010A140F3982073F3406345B344F3495
:1002300066346D347D3407347F346F3477347C34E6
:1002400039345E3479347134201422107520F2214F
:100250000422E321D621B621C821031383120313FC
:10026000831239216021061892219D218618872149
:1002700031293A08BF00C001C00A0A30BF02031882
:100280003C294003AA000A303F07A9003B08BF00F1
:10029000C001C00A0A30BF02031849294003AC005C
:1002A0000A303F07AB0029081021AD002A081021B1
:1002B000AE002B081021AF002C081021B000080060
:1002C0003C08BF00C001C00A0A30BF0203186329FE
:1002D0004003B2000A303F07B1003D08BF00C00133
:1002E000C00A0A30BF02031870294003B3000A3065
:1002F0003F07B40031081021B50032081021B600C4
:1003000033081021B70034081021B80008008618FF
:1003100087298B2108002208A30023182210231C00
:100320002214080006189229962108002008A1002E
:1003300021182010211C201408002018A221201CA4
:10034000AB2108002D08A4002E08A5002F08A60048
:100350003008A70008003508A4003608A5003708B3
:10036000A6003808A7000714871408000313831297
:1003700012179216121692151215921412140313D4
:100380008316013092009101031383128C10080030
:10039000031383121013901610169011901010145E
:1003A000F8308F005E308E000C10080003138316A7
:1003B0008C140C14031383128B160B110C108C105D
:1003C0000B178B1708000313831681128111011577
:1003D000811001100313831203138312E130810093
:1003E0000B11080003178316880189010313831674
:1003F00085018801870106148614061503138312EC
:100400008501880187010800031383160F138F12DB
:060410000F160F14080096
:04400E00D420FF3F7C
:00000001FF
