:060000000A128A11142906
:10000800F000030EF1008C1810200B194A20710E15
:100018008300F00E700E09008C10B30A33083C3CC4
:10002800031939202B080A3C03193C202C08063CEC
:1000380003193F202D080A3C031942202E08023CD0
:10004800031945202B080021B4002C080021B50015
:100058002D080021B6002E080021B7000800B301C2
:10006800AB01AC01AD01AE010800AB0AB301080059
:10007800AC0AAB010800AD0AAC010800AE0AAD013C
:1000880008002D08043C03193320080003138312C9
:10009800FE3081000B11260888002608013C031950
:1000A80068202608023C03196B202608043C031923
:1000B8006E202608083C031971200310A60D260897
:1000C800103C031974200800220885000800230842
:1000D8008500080024088500080025088500080018
:0600E800A601A60A0800B3
:100200008A010A140F3982073F3406345B344F34B5
:1002100066346D347D3407347F346F3477347C3406
:1002200039345E3479347134201474206B217B218D
:100230005C215121412103138312031383120618F9
:1002400022211F2906182229262108002008A100A2
:1002500021182D21211C3721080020103408A2006C
:100260003508A3003608A4003708A50008002014AC
:100270007730A2003930A3007930A4005E30A500A9
:1002800008000313831212179216121692151215F4
:1002900092141214031383167A30920091018C1079
:1002A0000800031383168C14031383128B160B118F
:1002B0008C100B178B170800031383168112811102
:1002C0000115811001100313831203138312FE30F2
:1002D00081000B110800031783168801890103139D
:1002E0008316850188018701061403138312850193
:1002F000880187010800031383160F138F120F164E
:040300000F140800CE
:04400E00D420FF3F7C
:00000001FF
