:060000000A128A112529F5
:10000800F000030EF1000B194B208C181F200C1860
:100018001220710E8300F00E700E0900F8308F0068
:100028005E308E000C1020181A200800C30A4308FE
:10003800013989000800031383128C10241CBB0AA1
:100048003B083C3C03193C203C083C3C03193F203E
:100058003D08183C031942203F080021C0003E0813
:100068004002031945203F080D3C031948200800A9
:10007800BC0ABB010800BD0ABC010800BE0ABD01DC
:100088000800BF0ABE0108000130BF0008000313C2
:100098008312E13081000B112A0888002A08013CEC
:1000A800031969202A08023C03196C202A08043C19
:1000B80003196F202A08083C031972200310AA0D9F
:1000C8002A08103C03197520080026088500080036
:1000D80027088500080028088500080029088500E9
:0800E8000800AA01AA0A0800A1
:100200008A010A140F39820700341F341D34203448
:100210001F3420341F34203420341F3420341F3442
:1002200020348A010A140F3982073F3406345B34C4
:100230004F3466346D347D3407347F346F34773413
:100240007C3439345E347934713420142410221013
:1002500075208A22A0227B226E224E226022031366
:100260008312031383123D21642106182B223622A8
:1002700086188B212418992133293C08C100C2011A
:10028000C20A0A30C102031840294203AC000A30F6
:100290004107AB003D08C100C201C20A0A30C102D9
:1002A00003184D294203AE000A304107AD002B0868
:1002B0001121AF002C081121B0002D081121B1002F
:1002C0002E081121B20008003E08C100C201C20A76
:1002D0000A30C102031867294203B4000A304107FB
:1002E000B3003F08C100C201C20A0A30C1020318AC
:1002F00074294203B6000A304107B50033081121C2
:10030000B70034081121B80035081121B9003608AA
:100310001121BA00080086188B298F2108002408B3
:10032000A50025189621251C241408002410BB01C3
:1003300008000619A021B121BB21C521CF21080049
:100340000619A0292208A3002318AD21231CA921E6
:1003500008002214071287160800221087120716B9
:1003600008002208C8002008C90048094905C4003F
:100370004418032208002208C8002008C9004909BF
:100380004805C5004518172208002208C8002008A3
:10039000C900C9084805C6004618DB210800220824
:1003A000C8002008C9004809CA0049094A05C70011
:1003B0004718EF2108008619E021061AE4210800F9
:1003C0008619E029BC0A0800061AE429BC033C0887
:1003D000FF3C0319EC2108003B30BC0008008619E3
:1003E000F421061AF82108008619F429BE0A08002B
:1003F000061AF829BE033E08FF3C03190022080034
:10040000C008BE00080086190822061A0C2208003F
:100410008619082ABD0A0800061A0C2ABD033D08E1
:10042000FF3C0319142208001730BD00080086198C
:100430001C22061A2022080086191C2ABF0A08005E
:10044000061A202ABF033F08FF3C03192822080090
:100450000C30BF00080006182B2A2F2208002008A5
:10046000A10021182010211C2014080020183B2274
:10047000201C442208002F08A6003008A7003108DD
:10048000A8003208A90008003708A8003808A90009
:100490003908A6003A08A7000914080003138312BC
:1004A00012179216121692151215921412140313A3
:1004B00083167A3092009101031383128C10080086
:1004C000031383121013901610169011901010142D
:1004D000F8308F005E308E000C1008000313831676
:1004E0008C140C14031383128B160B110C108C102C
:1004F0000B178B1708000313831681128111011546
:10050000811001100313831203138312E130810061
:100510000B11080003178316880189010313831642
:100520008501880187018901061486140615861540
:1005300006160313831285018801870189010800CB
:0E054000031383160F138F120F160F140800EB
:04400E00D420FF3F7C
:00000001FF
