:060000000A128A11142906
:10000800F000030EF1000B1954200F20710E83002D
:10001800F00E700E090003138312F03081000B11EB
:10002800B80A38083D3C031D3C28B801B30A330818
:100038003C3C031943202B080A3C031946202C0892
:10004800063C031949202D080A3C03194C202E08A8
:10005800023C03194F202B080021A2002C08002184
:10006800A3002D080021A4002E080021A5000800E7
:100078000800B301AB01AC01AD01AE010800AB0A49
:10008800B3010800AC0AAB010800AD0AAC010800D6
:10009800AE0AAD0108002D08043C03193D200800F4
:1000A80003138312F03081000B11260888002608FC
:1000B800013C031972202608023C03197520260802
:1000C800043C031978202608083C03197B200310F8
:1000D800A60D2608103C03197E200800220885007A
:1000E8000800230885000800240885000800250862
:0A00F80085000800A601A60A080012
:100200008A010A140F3982073F3406345B344F34B5
:1002100066346D347D3407347F346F3477347C3406
:1002200039345E347934713420147E206B217B2183
:100230005C215121412103138312031383120618F9
:1002400022211F2906182229262108002008A100A2
:1002500021182D21211C3721080020103408A2006C
:100260003508A3003608A4003708A50008002014AC
:100270007730A2003930A3007930A4005E30A500A9
:1002800008000313831212179216121692151215F4
:1002900092141214031383167A30920091018C1079
:1002A0000800031383168C14031383128B160B118F
:1002B0008C100B178B170800031383168112811102
:1002C0000115811001100313831203138312F03000
:1002D00081000B110800031783168801890103139D
:1002E0008316850188018701061403138312850193
:1002F000880187010800031383160F138F120F164E
:040300000F140800CE
:04400E00D420FF3F7C
:00000001FF
