:060000000A128A112529F5
:10000800F000030EF1000B194C208C181020710E13
:100018008300F00E700E0900031383128C10BE0AC1
:100028003F080D3C031946203F080021C4003E0844
:100038004402031949203E08C100C201C20A0A301D
:10004800C102031822284203AC000A304107AB0062
:100058002C081121A7002B081121A6003F08C10078
:10006800C201C20A0A30C102031835284203B4008B
:100078000A304107B30034081121A90033081121BF
:10008800A80008000130BF000800BF0ABE01080030
:1000980003138312E13081000B112A0888002A0813
:1000A800013C03196A202A08023C03196D202A081A
:1000B800043C031970202A08083C03197320031014
:1000C800AA0D2A08103C0319762008002608850086
:1000D8000800270885000800280885000800290866
:0A00E80085000800AA01AA0A08001A
:100200008A010A140F398207003420341D34203447
:100210001F3420341F34203420341F3420341F3442
:1002200020348A010A140F3982073F3406345B34C4
:100230004F3466346D347D3407347F346F34773413
:100240007C3439345E34793471340130BF00201489
:100250002410221076207221882163215621362114
:1002600048210313831203138312352903138312C6
:1002700012179216121692151215921412140313D5
:1002800083167A3092009101031383128C100800B8
:10029000031383121013901610169011901010145F
:1002A000F8308F005E308E000C10080003138316A8
:1002B0008C140C14031383128B160B110C108C105E
:1002C0000B178B1708000313831681128111011578
:1002D000811001100313831203138312E130810094
:1002E0000B11080003178316880189010313831675
:1002F0008501880187018901061486140615861573
:1003000006160313831285018801870189010800FD
:0E031000031383160F138F120F160F1408001D
:04400E00D420FF3F7C
:00000001FF
