:060000000A128A112529F5
:10000800F000030EF1000B1953208C181F200C1858
:100018001220710E8300F00E700E09000C308F0054
:100028002A308E000C1020181A200800C30A430832
:10003800013989000800031383128C10CC0A4C087C
:10004800C83C031D4228CC01241CBB0A3B083C3C8D
:10005800031943203C083C3C031946203D08183C42
:10006800031949203F080021C0003E084002031937
:100078004C203F080D3C0319502008000800BC0A1A
:10008800BB010800BD0ABC010800BE0ABD0108008A
:10009800BF0A0130BE0008000130BF00080003138A
:1000A8008312643081000B112A0888002A08013C59
:1000B800031971202A08023C031974202A08043CF9
:1000C800031977202A08083C03197A200310AA0D7F
:1000D8002A08103C03197D2008002608850008001E
:1000E80027088500080028088500080029088500D9
:0800F8000800AA01AA0A080091
:100200008A010A140F398207003420341D34203447
:100210001F3420341F34203420341F3420341F3442
:1002200020348A010A140F3982073F3406345B34C4
:100230004F3466346D347D3407347F346F34773413
:100240007C3439345E347934713420142410221013
:100250007D208E22A4227F22722252226422031346
:100260008312031383123D21642106182F223A22A0
:1002700086188B2124189D2133293C08C100C20116
:10028000C20A0A30C102031840294203AC000A30F6
:100290004107AB003D08C100C201C20A0A30C102D9
:1002A00003184D294203AE000A304107AD002B0868
:1002B0001121AF002C081121B0002D081121B1002F
:1002C0002E081121B20008003E08C100C201C20A76
:1002D0000A30C102031867294203B4000A304107FB
:1002E000B3003F08C100C201C20A0A30C1020318AC
:1002F00074294203B6000A304107B50033081121C2
:10030000B70034081121B80035081121B9003608AA
:100310001121BA00080086188B298F2108002408B3
:10032000A50025189621251C9A2108002410BB0140
:10033000071008002414071408000619A421B52189
:10034000BF21C921D32108000619A4292208A3002E
:100350002318B121231CAD2108002214071287168F
:10036000080022108712071608002208C80020087B
:10037000C90048094905C40044180722080022089A
:10038000C8002008C90049094805C50045181B22B6
:1003900008002208C8002008C900C9084805C6008E
:1003A0004618DF2108002208C8002008C9004809B3
:1003B000CA0049094A05C7004718F32108008619F1
:1003C000E421061AE82108008619E429BC0A08007D
:1003D000061AE829BC033C08FF3C0319F021080079
:1003E0003B30BC0008008619F821061AFC210800E1
:1003F0008619F829BE0A0800061AFC29BE033E0821
:10040000FF3C031904220800C008BE00080086193A
:100410000C22061A1022080086190C2ABD0A0800B0
:10042000061A102ABD033D08FF3C031918220800D4
:100430001730BD00080086192022061A2422080061
:100440008619202ABF0A0800061A242ABF033F087B
:10045000FF3C03192C2208000C30BF0008000618CE
:100460002F2A332208002008A10021182010211C67
:100470002014080020183F22201C482208002F08C2
:10048000A6003008A7003108A8003208A90008001B
:100490003708A8003808A9003908A6003A08A700BC
:1004A00009140800031383121213921212129215E8
:1004B000121592141210031383169C3092009101AE
:1004C000031383128C100800031383121013901669
:1004D00010169011901010140C308F002A308E00DE
:1004E0000C100800031383168C140C1403138312CE
:1004F0008B160B110C108C100B178B1708000313A5
:1005000083168112811101158114011003138312C6
:1005100003138312643081000B1108000317831644
:1005200088018901031383168501880187018901E8
:100530000614861406158615061603138312850104
:100540008801870189010800031383160F178F168E
:060550000F120F14080059
:04400E00D420FF3F7C
:00000001FF
