:060000000A128A112529F5
:10000800F000030EF1000B1953208C181F200C1858
:100018001220710E8300F00E700E09000C308F0054
:100028002A308E000C1020181A200800C30A430832
:10003800013989000800031383128C10CC0A4C087C
:10004800C83C031D4228CC01241CBB0A3B083C3C8D
:10005800031943203C083C3C031946203D08183C42
:10006800031949203F080021C0003E084002031937
:100078004C203F080D3C0319502008000800BC0A1A
:10008800BB010800BD0ABC010800BE0ABD0108008A
:10009800BF0A0130BE0008000130BF00080003138A
:1000A8008312643081000B112A0888002A08013C59
:1000B800031971202A08023C031974202A08043CF9
:1000C800031977202A08083C03197A200310AA0D7F
:1000D8002A08103C03197D2008002608850008001E
:1000E80027088500080028088500080029088500D9
:0800F8000800AA01AA0A080091
:100200008A010A140F398207003420341D34203447
:100210001F3420341F34203420341F3420341F3442
:1002200020348A010A140F3982073F3406345B34C4
:100230004F3466346D347D3407347F346F34773413
:100240007C3439345E347934713420142410221013
:100250007D209022A622812274225422662203133A
:100260008312031383123D216421061831223C229C
:1002700086188B2124189F2133293C08C100C20114
:10028000C20A0A30C102031840294203AC000A30F6
:100290004107AB003D08C100C201C20A0A30C102D9
:1002A00003184D294203AE000A304107AD002B0868
:1002B0001121AF002C081121B0002D081121B1002F
:1002C0002E081121B20008003E08C100C201C20A76
:1002D0000A30C102031867294203B4000A304107FB
:1002E000B3003F08C100C201C20A0A30C1020318AC
:1002F00074294203B6000A304107B50033081121C2
:10030000B70034081121B80035081121B9003608AA
:100310001121BA00080086188B298F2108002408B3
:10032000A50025189621251C9C2108002410BB013E
:100330000710071287120800241407140800061972
:10034000A621B721C121CB21D52108000619A62954
:100350002208A3002318B321231CAF210800221474
:1003600007128716080022108712071608002208B5
:10037000C8002008C90048094905C40044180922DA
:1003800008002208C8002008C90049094805C5001E
:1003900045181D2208002208C8002008C900C90805
:1003A0004805C6004618E12108002208C8002008B8
:1003B000C9004809CA0049094A05C7004718F5217C
:1003C00008008619E621061AEA2108008619E6299E
:1003D000BC0A0800061AEA29BC033C08FF3C0319C2
:1003E000F22108003B30BC0008008619FA21061AE9
:1003F000FE2108008619FA29BE0A0800061AFE29FD
:10040000BE033E08FF3C031906220800C008BE00D8
:10041000080086190E22061A1222080086190E2AD2
:10042000BD0A0800061A122ABD033D08FF3C031945
:100430001A2208001730BD00080086192222061A69
:10044000262208008619222ABF0A0800061A262A30
:10045000BF033F08FF3C03192E2208000C30BF00E9
:1004600008000618312A352208002008A1002118AA
:100470002010211C2014080020184122201C4A2290
:1004800008002F08A6003008A7003108A80032088D
:10049000A90008003708A8003808A9003908A600F4
:1004A0003A08A700091408000313831212139212CA
:1004B00012129215121592141210031383169C3007
:1004C00092009101031383128C100800031383120E
:1004D0001013901610169011901010140C308F00FD
:1004E0002A308E000C100800031383168C140C1491
:1004F000031383128B160B110C108C100B178B1718
:100500000800031383168112811101158114011053
:100510000313831203138312643081000B1108004C
:100520000317831688018901031383168501880147
:10053000870189010614861406158615061603130D
:10054000831285018801870189010800031383163E
:0A0550000F178F160F120F1408008A
:04400E00D420FF3F7C
:00000001FF
